{
  "contractName": "Delegation",
  "abi": [
    {
      "constant": true,
      "inputs": [],
      "name": "_lastCalculationTime",
      "outputs": [
        {
          "name": "",
          "type": "uint256"
        }
      ],
      "payable": false,
      "stateMutability": "view",
      "type": "function"
    },
    {
      "constant": true,
      "inputs": [
        {
          "name": "",
          "type": "address"
        }
      ],
      "name": "_voterId",
      "outputs": [
        {
          "name": "",
          "type": "uint256"
        }
      ],
      "payable": false,
      "stateMutability": "view",
      "type": "function"
    },
    {
      "constant": true,
      "inputs": [],
      "name": "numberOfRounds",
      "outputs": [
        {
          "name": "",
          "type": "uint256"
        }
      ],
      "payable": false,
      "stateMutability": "view",
      "type": "function"
    },
    {
      "constant": true,
      "inputs": [],
      "name": "_weightToken",
      "outputs": [
        {
          "name": "",
          "type": "address"
        }
      ],
      "payable": false,
      "stateMutability": "view",
      "type": "function"
    },
    {
      "constant": true,
      "inputs": [],
      "name": "owner",
      "outputs": [
        {
          "name": "",
          "type": "address"
        }
      ],
      "payable": false,
      "stateMutability": "view",
      "type": "function"
    },
    {
      "constant": true,
      "inputs": [
        {
          "name": "",
          "type": "uint256"
        }
      ],
      "name": "_delegatedVotes",
      "outputs": [
        {
          "name": "nominee",
          "type": "address"
        },
        {
          "name": "voter",
          "type": "address"
        }
      ],
      "payable": false,
      "stateMutability": "view",
      "type": "function"
    },
    {
      "constant": true,
      "inputs": [],
      "name": "_delegatedPercent",
      "outputs": [
        {
          "name": "",
          "type": "uint256"
        }
      ],
      "payable": false,
      "stateMutability": "view",
      "type": "function"
    },
    {
      "constant": false,
      "inputs": [
        {
          "name": "newOwner",
          "type": "address"
        }
      ],
      "name": "transferOwnership",
      "outputs": [],
      "payable": false,
      "stateMutability": "nonpayable",
      "type": "function"
    },
    {
      "inputs": [
        {
          "name": "tokenAddress",
          "type": "address"
        },
        {
          "name": "percentLossInEachRound",
          "type": "uint256"
        }
      ],
      "payable": false,
      "stateMutability": "nonpayable",
      "type": "constructor"
    },
    {
      "payable": false,
      "stateMutability": "nonpayable",
      "type": "fallback"
    },
    {
      "anonymous": false,
      "inputs": [
        {
          "indexed": false,
          "name": "tokenAddress",
          "type": "address"
        },
        {
          "indexed": false,
          "name": "delegatedPercent",
          "type": "uint256"
        }
      ],
      "name": "ChangeOfRules",
      "type": "event"
    },
    {
      "anonymous": false,
      "inputs": [
        {
          "indexed": false,
          "name": "roundNumber",
          "type": "uint256"
        }
      ],
      "name": "DelegationRoundFinished",
      "type": "event"
    },
    {
      "constant": false,
      "inputs": [
        {
          "name": "tokenAddress",
          "type": "address"
        },
        {
          "name": "percentLossInEachRound",
          "type": "uint256"
        }
      ],
      "name": "changeRules",
      "outputs": [],
      "payable": false,
      "stateMutability": "nonpayable",
      "type": "function"
    },
    {
      "constant": true,
      "inputs": [
        {
          "name": "addr",
          "type": "address"
        }
      ],
      "name": "voteWeight",
      "outputs": [
        {
          "name": "",
          "type": "uint256"
        }
      ],
      "payable": false,
      "stateMutability": "view",
      "type": "function"
    },
    {
      "constant": false,
      "inputs": [
        {
          "name": "nominatedAddress",
          "type": "address"
        }
      ],
      "name": "delegateVote",
      "outputs": [
        {
          "name": "voteIndex",
          "type": "uint256"
        }
      ],
      "payable": false,
      "stateMutability": "nonpayable",
      "type": "function"
    },
    {
      "constant": false,
      "inputs": [],
      "name": "calculateVotes",
      "outputs": [],
      "payable": false,
      "stateMutability": "nonpayable",
      "type": "function"
    }
  ],
  "bytecode": "0x6060604052341561000f57600080fd5b604051604080610b33833981016040528080519190602001805160018054600160a060020a03191633600160a060020a0316179055915061005f9050828264010000000061006681026103331704565b50506101f6565b60015433600160a060020a0390811691161461008157600080fd5b60028054600160a060020a031916600160a060020a0384161790556064818103600681905511156100b25760646006555b60058054906100c4906001830161018d565b50604080519081016040526000808252602082018190526005805490919081106100ea57fe5b906000526020600020906002020160008201518154600160a060020a031916600160a060020a039190911617815560208201516001919091018054600160a060020a031916600160a060020a03909216919091179055506006547f58e6c0db75d11d643de8a3bb3dd242a3ca112c9ac92f3d7769571cb45c88cc89908390604051600160a060020a03909216825260208201526040908101905180910390a15050565b8154818355818115116101b9576002028160020283600052602060002091820191016101b991906101be565b505050565b6101f391905b808211156101ef578054600160a060020a0319908116825560018201805490911690556002016101c4565b5090565b90565b61092e806102056000396000f3006060604052600436106100a05763ffffffff60e060020a600035041663169d16e481146100b0578063392d8c88146100d55780633bde045f146100f45780637d394e9a146101075780637eadebfe1461013657806380b674b6146101555780638da5cb5b14610179578063b31e1d4d1461018c578063ba7f63b2146101ab578063df80ca93146101e5578063f2ba18ed146101f8578063f2fde38b1461020b575b34156100ab57600080fd5b600080fd5b34156100bb57600080fd5b6100c361022a565b60405190815260200160405180910390f35b34156100e057600080fd5b6100c3600160a060020a0360043516610230565b34156100ff57600080fd5b6100c3610242565b341561011257600080fd5b61011a610248565b604051600160a060020a03909116815260200160405180910390f35b341561014157600080fd5b6100c3600160a060020a0360043516610257565b341561016057600080fd5b610177600160a060020a0360043516602435610333565b005b341561018457600080fd5b61011a61045a565b341561019757600080fd5b6100c3600160a060020a0360043516610469565b34156101b657600080fd5b6101c160043561055f565b604051600160a060020a039283168152911660208201526040908101905180910390f35b34156101f057600080fd5b6100c3610596565b341561020357600080fd5b61017761059c565b341561021657600080fd5b610177600160a060020a036004351661085c565b60075481565b60046020526000908152604090205481565b60005481565b600254600160a060020a031681565b600160a060020a038116600090815260036020526040812054819011806102945750600160a060020a033316600090815260046020526040812054115b156102b85750600160a060020a03811660009081526003602052604090205461032e565b600254600160a060020a03166370a082318360006040516020015260405160e060020a63ffffffff8416028152600160a060020a039091166004820152602401602060405180830381600087803b151561031157600080fd5b6102c65a03f1151561032257600080fd5b50505060405180519150505b919050565b60015433600160a060020a0390811691161461034e57600080fd5b60028054600160a060020a031916600160a060020a03841617905560648181036006819055111561037f5760646006555b60058054906103919060018301610899565b50604080519081016040526000808252602082018190526005805490919081106103b757fe5b906000526020600020906002020160008201518154600160a060020a031916600160a060020a039190911617815560208201516001919091018054600160a060020a031916600160a060020a03909216919091179055506006547f58e6c0db75d11d643de8a3bb3dd242a3ca112c9ac92f3d7769571cb45c88cc89908390604051600160a060020a03909216825260208201526040908101905180910390a15050565b600154600160a060020a031681565b600160a060020a03331660009081526004602052604081205415156104bc5760058054600160a060020a0333166000908152600460205260409020819055906104b59060018301610899565b90506104d7565b50600160a060020a0333166000908152600460205260409020545b60408051908101604052600160a060020a03808416825233166020820152600580548390811061050357fe5b906000526020600020906002020160008201518154600160a060020a031916600160a060020a039190911617815560208201516001919091018054600160a060020a031916600160a060020a0390921691909117905550919050565b600580548290811061056d57fe5b600091825260209091206002909102018054600190910154600160a060020a0391821692501682565b60065481565b600080600060075461151801421115610714576000805542600755600192505b600554831015610611576000600360006005868154811015156105db57fe5b60009182526020808320600290920290910154600160a060020a03168352820192909252604001902055600192909201916105bc565b600192505b60055483101561070f5760025460058054600160a060020a03909216916370a0823191908690811061064457fe5b60009182526020822060016002909202010154600160a060020a0316906040516020015260405160e060020a63ffffffff8416028152600160a060020a039091166004820152602401602060405180830381600087803b15156106a657600080fd5b6102c65a03f115156106b757600080fd5b50505060405180519050600360006005868154811015156106d457fe5b600091825260208083206001600290930201820154600160a060020a0316845283019390935260409091019020919091559290920191610616565b610822565b6000805460010190819055600654606482810a9290910a0281151561073557fe5b04915060008211156108225760058054600090811061075057fe5b90600052602060002090600202019050600192505b60055483101561082257600580548490811061077d57fe5b6000918252602090912060029091020160018101548154919250600160a060020a039081169116148015906107cc57506001810154600160a060020a0316600090815260036020526040812054115b1561081757600181018054600160a060020a03908116600090815260036020526040808220548554841683528183208054606492890292909204909101905592549091168152908120555b600190920191610765565b7f53ccbbd0f977996b3902283c12e4b0290a0768e5fcbc77053c7ab288bfbfc6f660005460405190815260200160405180910390a1505050565b60015433600160a060020a0390811691161461087757600080fd5b60018054600160a060020a031916600160a060020a0392909216919091179055565b8154818355818115116108c5576002028160020283600052602060002091820191016108c591906108ca565b505050565b6108ff91905b808211156108fb578054600160a060020a0319908116825560018201805490911690556002016108d0565b5090565b905600a165627a7a7230582078a24f288e2091d03a149129b38599587372b5792c5d8cc9217fafa710424abd0029",
  "source": "pragma solidity ^0.4.2;\n\nimport \"./Unitoken.sol\";\nimport \"./Owned.sol\";\n\ncontract IDelegation{\n    function voteWeight(address) constant returns (uint);\n    uint public numberOfRounds;\n}\n\ncontract Delegation is IDelegation, Owned {\n    IToken public _weightToken;\n\n    mapping (address => uint) _voteWeight;\n    mapping (address => uint) public _voterId;\n    DelegatedVote[] public _delegatedVotes;\n    uint public _delegatedPercent;\n    uint public _lastCalculationTime;\n\n    event ChangeOfRules(\n        address tokenAddress,\n        uint delegatedPercent\n    );\n\n    event DelegationRoundFinished(uint roundNumber);\n\n    struct DelegatedVote {\n        address nominee;\n        address voter;\n    }\n\n    function Delegation(\n        address tokenAddress,\n        uint percentLossInEachRound)\n    {\n        changeRules(tokenAddress, percentLossInEachRound);\n    }\n\n    function changeRules(\n        address tokenAddress,\n        uint percentLossInEachRound)\n        onlyOwner\n    {\n        _weightToken = IToken(tokenAddress);\n        _delegatedPercent = 100 - percentLossInEachRound;\n        if (_delegatedPercent > 100) _delegatedPercent = 100;\n        _delegatedVotes.length++;\n        _delegatedVotes[0] = DelegatedVote({nominee: 0, voter: 0});\n\n        ChangeOfRules(tokenAddress, _delegatedPercent);\n    }\n\n    function voteWeight(address addr) constant returns (uint) {\n        if(_voteWeight[addr] > 0 || _voterId[msg.sender] > 0){ // if user is principal or delegate\n            return _voteWeight[addr];\n        }\n        else{\n            return _weightToken.balanceOf(addr);\n        }\n    }\n\n    function delegateVote(address nominatedAddress) returns (uint voteIndex) {\n        if (_voterId[msg.sender] == 0) {\n            _voterId[msg.sender] = _delegatedVotes.length;\n            voteIndex = _delegatedVotes.length++;\n        }\n        else {\n            voteIndex = _voterId[msg.sender];\n        }\n\n        _delegatedVotes[voteIndex] = DelegatedVote({nominee: nominatedAddress, voter: msg.sender});\n    }\n\n    function calculateVotes() {\n        \n        if (now > _lastCalculationTime + 90 minutes) {\n            numberOfRounds = 0;\n            _lastCalculationTime = now;\n\n            // Distribute the initial weight\n            for (uint i=1; i< _delegatedVotes.length; i++) {\n                _voteWeight[_delegatedVotes[i].nominee] = 0;\n            }\n            for (i=1; i< _delegatedVotes.length; i++) {\n                _voteWeight[_delegatedVotes[i].voter] = _weightToken.balanceOf(_delegatedVotes[i].voter);\n            }\n        }\n        else {\n            numberOfRounds++;\n            uint lossRatio = 100 * _delegatedPercent ** numberOfRounds / 100 ** numberOfRounds;\n            if (lossRatio > 0) {\n                DelegatedVote v = _delegatedVotes[0];\n                for (i = 1; i < _delegatedVotes.length; i++){\n                    v = _delegatedVotes[i];\n                    if (v.nominee != v.voter && _voteWeight[v.voter] > 0) {\n                        _voteWeight[v.nominee] += _voteWeight[v.voter] * lossRatio / 100;\n                        _voteWeight[v.voter] = 0;\n                    }\n                }\n            }\n        }\n\n        DelegationRoundFinished(numberOfRounds);\n    }\n\n    /* This unnamed function is called whenever someone tries to send ether to it */\n    function () {\n        throw;     // Prevents accidental sending of ether\n    }\n}",
  "sourcePath": "/Users/frostiq/source/univereum/x/contracts/Delegation.sol",
  "compiler": {
    "name": "solc",
    "version": "0.4.18+commit.9cf6e910.Emscripten.clang"
  },
  "schemaVersion": "2.0.0",
  "updatedAt": "2018-04-22T14:25:03.161Z"
}