{
  "contractName": "IToken",
  "abi": [
    {
      "constant": true,
      "inputs": [
        {
          "name": "",
          "type": "address"
        }
      ],
      "name": "balanceOf",
      "outputs": [
        {
          "name": "",
          "type": "uint256"
        }
      ],
      "payable": false,
      "stateMutability": "view",
      "type": "function"
    }
  ],
  "bytecode": "0x6060604052341561000f57600080fd5b60bc8061001d6000396000f300606060405260043610603e5763ffffffff7c010000000000000000000000000000000000000000000000000000000060003504166370a0823181146043575b600080fd5b3415604d57600080fd5b606c73ffffffffffffffffffffffffffffffffffffffff60043516607e565b60405190815260200160405180910390f35b600060208190529081526040902054815600a165627a7a72305820900d6973ede53255904eff7df10530055a9823db8814d0c3d764cf8e0a25230a0029",
  "source": "pragma solidity ^0.4.2;\n\nimport \"./Owned.sol\";\n\ncontract IToken {\n    mapping (address => uint) public balanceOf;\n}\n\ncontract Unitoken is IToken, Owned {\n    /* Public variables of the token */\n    string public standard = 'Token 0.1';\n    string public name;\n    string public symbol;\n    uint8 public decimals;\n    uint256 public totalSupply;\n\n    mapping (address => bool) public frozenAccount;\n\n    /* Initializes contract with initial supply tokens to the creator of the contract */\n    function Unitoken(\n        uint256 initialSupply,\n        string tokenName,\n        uint8 decimalUnits,\n        string tokenSymbol,\n        address centralMinter\n    ) {\n        totalSupply = initialSupply;                        // Update total supply\n        name = tokenName;                                   // Set the name for display purposes\n        symbol = tokenSymbol;                               // Set the symbol for display purposes\n        decimals = decimalUnits; \n        if (centralMinter != 0 ) owner = centralMinter;      // Sets the owner as specified (if centralMinter is not specified the owner is msg.sender)\n        balanceOf[owner] = initialSupply;                   // Give the owner all initial tokens\n    }\n\n    /* This generates a public event on the blockchain that will notify clients */\n    event Transfer(address indexed from, address indexed to, uint256 value);\n    \n    /* This generates a public event on the blockchain that will notify clients */\n    event FrozenFunds(address target, bool frozen);\n\n    function transfer(address _to, uint256 _value) {\n        if (frozenAccount[msg.sender]) throw;                // Check if frozen\n        if (balanceOf[msg.sender] < _value) throw;           // Check if the sender has enough\n        if (balanceOf[_to] + _value < balanceOf[_to]) throw; // Check for overflows\n        \n        balanceOf[msg.sender] -= _value;                     // Subtract from the sender\n        balanceOf[_to] += _value;                            // Add the same to the recipient\n        Transfer(msg.sender, _to, _value);                   // Notify anyone listening that this transfer took place\n    }\n\n    function mintToken(address target, uint256 mintedAmount) onlyOwner {\n        balanceOf[target] += mintedAmount;\n        totalSupply += mintedAmount;\n        Transfer(0, this, mintedAmount);\n        Transfer(this, target, mintedAmount);\n    }\n\n    function freezeAccount(address target, bool freeze) onlyOwner {\n        frozenAccount[target] = freeze;\n        FrozenFunds(target, freeze);\n    }\n\n    /* This unnamed function is called whenever someone tries to send ether to it */\n    function () {\n        throw;     // Prevents accidental sending of ether\n    }\n}",
  "sourcePath": "/Users/frostiq/source/univereum/contracts/Unitoken.sol",
  "compiler": {
    "name": "solc",
    "version": "0.4.18+commit.9cf6e910.Emscripten.clang"
  },
  "schemaVersion": "2.0.0",
  "updatedAt": "2018-04-22T15:33:23.008Z"
}