{
  "contractName": "LiquidAssociation",
  "abi": [
    {
      "constant": true,
      "inputs": [
        {
          "name": "",
          "type": "uint256"
        }
      ],
      "name": "proposals",
      "outputs": [
        {
          "name": "recipient",
          "type": "address"
        },
        {
          "name": "description",
          "type": "string"
        },
        {
          "name": "votingDeadline",
          "type": "uint256"
        },
        {
          "name": "executed",
          "type": "bool"
        },
        {
          "name": "proposalPassed",
          "type": "bool"
        },
        {
          "name": "numberOfVotes",
          "type": "uint256"
        },
        {
          "name": "proposalHash",
          "type": "bytes32"
        }
      ],
      "payable": false,
      "stateMutability": "view",
      "type": "function"
    },
    {
      "constant": true,
      "inputs": [],
      "name": "debatingPeriodInMinutes",
      "outputs": [
        {
          "name": "",
          "type": "uint256"
        }
      ],
      "payable": false,
      "stateMutability": "view",
      "type": "function"
    },
    {
      "constant": true,
      "inputs": [],
      "name": "minimumQuorum",
      "outputs": [
        {
          "name": "",
          "type": "uint256"
        }
      ],
      "payable": false,
      "stateMutability": "view",
      "type": "function"
    },
    {
      "constant": true,
      "inputs": [],
      "name": "owner",
      "outputs": [
        {
          "name": "",
          "type": "address"
        }
      ],
      "payable": false,
      "stateMutability": "view",
      "type": "function"
    },
    {
      "constant": true,
      "inputs": [],
      "name": "delegation",
      "outputs": [
        {
          "name": "",
          "type": "address"
        }
      ],
      "payable": false,
      "stateMutability": "view",
      "type": "function"
    },
    {
      "constant": false,
      "inputs": [
        {
          "name": "newOwner",
          "type": "address"
        }
      ],
      "name": "transferOwnership",
      "outputs": [],
      "payable": false,
      "stateMutability": "nonpayable",
      "type": "function"
    },
    {
      "inputs": [
        {
          "name": "delegationAddress",
          "type": "address"
        },
        {
          "name": "minimumSharesToPassAVote",
          "type": "uint256"
        },
        {
          "name": "minutesForDebate",
          "type": "uint256"
        }
      ],
      "payable": false,
      "stateMutability": "nonpayable",
      "type": "constructor"
    },
    {
      "payable": false,
      "stateMutability": "nonpayable",
      "type": "fallback"
    },
    {
      "anonymous": false,
      "inputs": [
        {
          "indexed": false,
          "name": "proposalID",
          "type": "uint256"
        },
        {
          "indexed": false,
          "name": "recipient",
          "type": "address"
        },
        {
          "indexed": false,
          "name": "description",
          "type": "string"
        }
      ],
      "name": "ProposalAdded",
      "type": "event"
    },
    {
      "anonymous": false,
      "inputs": [
        {
          "indexed": false,
          "name": "proposalID",
          "type": "uint256"
        },
        {
          "indexed": false,
          "name": "position",
          "type": "bool"
        },
        {
          "indexed": false,
          "name": "voter",
          "type": "address"
        }
      ],
      "name": "Voted",
      "type": "event"
    },
    {
      "anonymous": false,
      "inputs": [
        {
          "indexed": false,
          "name": "proposalID",
          "type": "uint256"
        },
        {
          "indexed": false,
          "name": "result",
          "type": "int256"
        },
        {
          "indexed": false,
          "name": "quorum",
          "type": "uint256"
        },
        {
          "indexed": false,
          "name": "active",
          "type": "bool"
        }
      ],
      "name": "ProposalExecuted",
      "type": "event"
    },
    {
      "anonymous": false,
      "inputs": [
        {
          "indexed": false,
          "name": "delegationAddress",
          "type": "address"
        },
        {
          "indexed": false,
          "name": "minimumSharesToPassAVote",
          "type": "uint256"
        },
        {
          "indexed": false,
          "name": "minutesForDebate",
          "type": "uint256"
        }
      ],
      "name": "ChangeOfRules",
      "type": "event"
    },
    {
      "constant": false,
      "inputs": [
        {
          "name": "delegationAddress",
          "type": "address"
        },
        {
          "name": "minimumSharesToPassAVote",
          "type": "uint256"
        },
        {
          "name": "minutesForDebate",
          "type": "uint256"
        }
      ],
      "name": "changeVotingRules",
      "outputs": [],
      "payable": false,
      "stateMutability": "nonpayable",
      "type": "function"
    },
    {
      "constant": false,
      "inputs": [
        {
          "name": "target",
          "type": "address"
        },
        {
          "name": "jobDescription",
          "type": "string"
        },
        {
          "name": "transactionBytecode",
          "type": "bytes"
        }
      ],
      "name": "newProposal",
      "outputs": [
        {
          "name": "proposalID",
          "type": "uint256"
        }
      ],
      "payable": false,
      "stateMutability": "nonpayable",
      "type": "function"
    },
    {
      "constant": true,
      "inputs": [],
      "name": "numProposals",
      "outputs": [
        {
          "name": "numberOfProposals",
          "type": "uint256"
        }
      ],
      "payable": false,
      "stateMutability": "view",
      "type": "function"
    },
    {
      "constant": true,
      "inputs": [
        {
          "name": "proposalNumber",
          "type": "uint256"
        },
        {
          "name": "target",
          "type": "address"
        },
        {
          "name": "transactionBytecode",
          "type": "bytes"
        }
      ],
      "name": "checkProposalCode",
      "outputs": [
        {
          "name": "codeChecksOut",
          "type": "bool"
        }
      ],
      "payable": false,
      "stateMutability": "view",
      "type": "function"
    },
    {
      "constant": false,
      "inputs": [
        {
          "name": "proposalNumber",
          "type": "uint256"
        },
        {
          "name": "supportsProposal",
          "type": "bool"
        }
      ],
      "name": "vote",
      "outputs": [
        {
          "name": "voteID",
          "type": "uint256"
        }
      ],
      "payable": false,
      "stateMutability": "nonpayable",
      "type": "function"
    },
    {
      "constant": false,
      "inputs": [
        {
          "name": "proposalNumber",
          "type": "uint256"
        },
        {
          "name": "transactionBytecode",
          "type": "bytes"
        }
      ],
      "name": "executeProposal",
      "outputs": [
        {
          "name": "result",
          "type": "int256"
        }
      ],
      "payable": false,
      "stateMutability": "nonpayable",
      "type": "function"
    }
  ],
  "bytecode": "0x6060604052341561000f57600080fd5b6040516060806110c383398101604052808051919060200180519190602001805160008054600160a060020a03191633600160a060020a03161790559150610067905083838364010000000061006f81026107fc1704565b505050610119565b60005433600160a060020a0390811691161461008a57600080fd5b60018054600160a060020a031916600160a060020a0385161790558115156100b157600191505b600382905560048190557f96ef90b531f9988ddd5cb9207c581e9ece413f8cbf5b6f4082883bde75107e538383836040518084600160a060020a0316600160a060020a03168152602001838152602001828152602001935050505060405180910390a1505050565b610f9b806101286000396000f3006060604052600436106100a05763ffffffff60e060020a600035041663013cf08b81146100b0578063237e94921461018957806331db6426146101f1578063400e39491461026a578063520910471461027d57806369bd3436146102a45780638160f0b5146102b75780638da5cb5b146102ca578063c079c0c3146102f9578063c9d27afe1461039a578063df5cf723146103b5578063f2fde38b146103c8575b34156100ab57600080fd5b600080fd5b34156100bb57600080fd5b6100c66004356103e7565b604051600160a060020a0388168152604081018690528415156060820152831515608082015260a0810183905260c0810182905260e06020820181815288546002610100600183161581026000190190921604928401839052909190830190899080156101745780601f1061014957610100808354040283529160200191610174565b820191906000526020600020905b81548152906001019060200180831161015757829003601f168201915b50509850505050505050505060405180910390f35b341561019457600080fd5b6101df600480359060446024803590810190830135806020601f8201819004810201604051908101604052818152929190602084018383808284375094965061044295505050505050565b60405190815260200160405180910390f35b34156101fc57600080fd5b610256600480359060248035600160a060020a0316919060649060443590810190830135806020601f8201819004810201604051908101604052818152929190602084018383808284375094965061074695505050505050565b604051901515815260200160405180910390f35b341561027557600080fd5b6101df6107f5565b341561028857600080fd5b6102a2600160a060020a03600435166024356044356107fc565b005b34156102af57600080fd5b6101df6108b3565b34156102c257600080fd5b6101df6108b9565b34156102d557600080fd5b6102dd6108bf565b604051600160a060020a03909116815260200160405180910390f35b341561030457600080fd5b6101df60048035600160a060020a03169060446024803590810190830135806020601f8201819004810201604051908101604052818152929190602084018383808284378201915050505050509190803590602001908201803590602001908080601f0160208091040260200160405190810160405281815292919060208401838380828437509496506108ce95505050505050565b34156103a557600080fd5b6101df6004356024351515610b3e565b34156103c057600080fd5b6102dd610d1f565b34156103d357600080fd5b6102a2600160a060020a0360043516610d2e565b60028054829081106103f557fe5b6000918252602090912060089091020180546002820154600383015460048401546005850154600160a060020a039094169550600190940193919260ff8083169361010090930416919087565b60008060008060008060008060028a81548110151561045d57fe5b9060005260206000209060080201965086600201544210806104835750600387015460ff165b8061051857508654600160a060020a0316896040516c01000000000000000000000000600160a060020a0384160281526014810182805190602001908083835b602083106104e25780518252601f1990920191602091820191016104c3565b6001836020036101000a038019825116818451161790925250505091909101935060409250505051908190039020600588015414155b1561052257600080fd5b600095506000945060009350600092505b6006870154831015610608576006870180548490811061054f57fe5b60009182526020822060015491018054909450600160a060020a0391821692637eadebfe92610100909204909116906040516020015260405160e060020a63ffffffff8416028152600160a060020a039091166004820152602401602060405180830381600087803b15156105c357600080fd5b6102c65a03f115156105d457600080fd5b505050604051805183549781019790925060ff161590506105f857938401936105fd565b928301925b826001019250610533565b600354861161061657600080fd5b838511156106ca5760038701805460ff191660011790558654600160a060020a03168960405180828051906020019080838360005b8381101561066357808201518382015260200161064b565b50505050905090810190601f1680156106905780820380516001836020036101000a031916815260200191505b5091505060006040518083038160008661646e5a03f191505015156106b457600080fd5b60038701805461ff0019166101001790556106d8565b60038701805461ff00191690555b7f543e90ebc10a42ca6d4a0cf67737ee971b34af4b1ce4146fb1cb3bfe1da543968a89888a60030160019054906101000a900460ff16604051938452602084019290925260408084019190915290151560608301526080909101905180910390a15050505050505092915050565b60008060028581548110151561075857fe5b9060005260206000209060080201905083836040516c01000000000000000000000000600160a060020a0384160281526014810182805190602001908083835b602083106107b75780518252601f199092019160209182019101610798565b6001836020036101000a0380198251168184511617909252505050919091019350604092505050519081900390206005820154149150509392505050565b6002545b90565b60005433600160a060020a0390811691161461081757600080fd5b6001805473ffffffffffffffffffffffffffffffffffffffff1916600160a060020a03851617905581151561084b57600191505b600382905560048190557f96ef90b531f9988ddd5cb9207c581e9ece413f8cbf5b6f4082883bde75107e538383836040518084600160a060020a0316600160a060020a03168152602001838152602001828152602001935050505060405180910390a1505050565b60045481565b60035481565b600054600160a060020a031681565b6001546000908190600160a060020a0316637eadebfe33836040516020015260405160e060020a63ffffffff8416028152600160a060020a039091166004820152602401602060405180830381600087803b151561092b57600080fd5b6102c65a03f1151561093c57600080fd5b50505060405180511515905061095157600080fd5b60028054906109639060018301610d78565b915060028281548110151561097457fe5b60009182526020909120600890910201805473ffffffffffffffffffffffffffffffffffffffff1916600160a060020a0387161781559050600181018480516109c1929160200190610da9565b5084836040516c01000000000000000000000000600160a060020a0384160281526014810182805190602001908083835b60208310610a115780518252601f1990920191602091820191016109f2565b6001836020036101000a038019825116818451161790925250505091909101935060409250505051908190039020600582015560048054603c024201600283015560038201805461ffff1916905560009082015580547fd77bd1ae46de2740b5f2ad83c18cba00b4a7d4df0681958bc8dd76b20e5846f0908390600160a060020a031660018401604051838152600160a060020a038316602082015260606040820181815283546002600019610100600184161502019091160491830182905290608083019084908015610b265780601f10610afb57610100808354040283529160200191610b26565b820191906000526020600020905b815481529060010190602001808311610b0957829003601f168201915b505094505050505060405180910390a1509392505050565b6001546000908190600160a060020a0316637eadebfe33836040516020015260405160e060020a63ffffffff8416028152600160a060020a039091166004820152602401602060405180830381600087803b1515610b9b57600080fd5b6102c65a03f11515610bac57600080fd5b505050604051805115159050610bc157600080fd5b6002805485908110610bcf57fe5b60009182526020808320600160a060020a03331684526007600890930201918201905260409091205490915060ff16151560011415610c0d57600080fd5b60068101805490610c219060018301610e27565b9150604080519081016040528315158152600160a060020a033316602082015260068201805484908110610c5157fe5b60009182526020909120018151815460ff19169015151781556020820151815474ffffffffffffffffffffffffffffffffffffffff001916610100600160a060020a03928316021790915533908116600090815260078401602052604090819020805460ff19166001908117909155850160048501557f86abfce99b7dd908bec0169288797f85049ec73cbe046ed9de818fab3a497ae0925086918691519283529015156020830152600160a060020a03166040808301919091526060909101905180910390a15092915050565b600154600160a060020a031681565b60005433600160a060020a03908116911614610d4957600080fd5b6000805473ffffffffffffffffffffffffffffffffffffffff1916600160a060020a0392909216919091179055565b815481835581811511610da457600802816008028360005260206000209182019101610da49190610e4b565b505050565b828054600181600116156101000203166002900490600052602060002090601f016020900481019282601f10610dea57805160ff1916838001178555610e17565b82800160010185558215610e17579182015b82811115610e17578251825591602001919060010190610dfc565b50610e23929150610ebe565b5090565b815481835581811511610da457600083815260209020610da4918101908301610ed8565b6107f991905b80821115610e2357805473ffffffffffffffffffffffffffffffffffffffff191681556000610e836001830182610f0a565b60006002830181905560038301805461ffff191690556004830181905560058301819055610eb5906006840190610f51565b50600801610e51565b6107f991905b80821115610e235760008155600101610ec4565b6107f991905b80821115610e2357805474ffffffffffffffffffffffffffffffffffffffffff19168155600101610ede565b50805460018160011615610100020316600290046000825580601f10610f305750610f4e565b601f016020900490600052602060002090810190610f4e9190610ebe565b50565b5080546000825590600052602060002090810190610f4e9190610ed85600a165627a7a72305820cf3e2ee9a14ec44cb8e70f69eedabbb7aa6d2acf92336ec4e0b15bc48ac1151a0029",
  "source": "pragma solidity ^0.4.2;\n\nimport \"./Owned.sol\";\nimport \"./Delegation.sol\";\n\ncontract LiquidAssociation is Owned {\n    IDelegation public delegation;\n\n    Proposal[] public proposals;\n    uint public minimumQuorum;\n    uint public debatingPeriodInMinutes;\n\n    event ProposalAdded(uint proposalID, address recipient, string description);\n    event Voted(uint proposalID, bool position, address voter);\n    event ProposalExecuted(uint proposalID, int result, uint quorum, bool active);\n    event ChangeOfRules(address delegationAddress, uint minimumSharesToPassAVote, uint minutesForDebate);\n\n    struct Vote {\n        bool inSupport;\n        address voter;\n    }\n\n    struct Proposal {\n        address recipient;\n        string description;\n        uint votingDeadline;\n        bool executed;\n        bool proposalPassed;\n        uint numberOfVotes;\n        bytes32 proposalHash;\n        Vote[] votes;\n        mapping (address => bool) voted;\n    }\n\n    /* modifier that allows only shareholders to vote and create new proposals */\n    modifier onlyDelegates {\n        if (delegation.voteWeight(msg.sender) == 0) throw;\n        _;\n    }\n\n    function LiquidAssociation(\n        address delegationAddress,\n        uint minimumSharesToPassAVote, \n        uint minutesForDebate) \n    {\n        changeVotingRules(\n            delegationAddress,\n            minimumSharesToPassAVote, \n            minutesForDebate);\n    }\n\n    function changeVotingRules(\n        address delegationAddress,\n        uint minimumSharesToPassAVote, \n        uint minutesForDebate)\n        onlyOwner \n    {\n        delegation = IDelegation(delegationAddress);\n        if (minimumSharesToPassAVote == 0 ) minimumSharesToPassAVote = 1;\n        minimumQuorum = minimumSharesToPassAVote;\n        debatingPeriodInMinutes = minutesForDebate;\n\n        ChangeOfRules(\n            delegationAddress,\n            minimumSharesToPassAVote, \n            debatingPeriodInMinutes);\n    }\n\n    function newProposal(\n        address target,\n        string jobDescription,\n        bytes transactionBytecode\n    )\n        onlyDelegates\n        returns (uint proposalID)\n    {\n        proposalID = proposals.length++;\n        Proposal p = proposals[proposalID];\n        p.recipient = target;\n        p.description = jobDescription;\n        p.proposalHash = sha3(target, transactionBytecode);\n        p.votingDeadline = now + debatingPeriodInMinutes * 1 minutes;\n        p.executed = false;\n        p.proposalPassed = false;\n        p.numberOfVotes = 0;\n        ProposalAdded(proposalID, p.recipient, p.description);\n    }\n\n    function numProposals() constant returns (uint numberOfProposals) {\n        return proposals.length;\n    }\n\n    function checkProposalCode(\n        uint proposalNumber,\n        address target,\n        bytes transactionBytecode\n    )\n        constant\n        returns (bool codeChecksOut)\n    {\n        Proposal p = proposals[proposalNumber];\n        return p.proposalHash == sha3(target, transactionBytecode);\n    }\n\n    function vote(uint proposalNumber, bool supportsProposal)\n        onlyDelegates\n        returns (uint voteID)\n    {\n        Proposal p = proposals[proposalNumber];\n        if (p.voted[msg.sender] == true) throw;\n\n        voteID = p.votes.length++;\n        p.votes[voteID] = Vote({inSupport: supportsProposal, voter: msg.sender});\n        p.voted[msg.sender] = true;\n        p.numberOfVotes = voteID + 1;\n        Voted(proposalNumber,  supportsProposal, msg.sender);\n        return voteID;\n    }\n\n    function executeProposal(uint proposalNumber, bytes transactionBytecode) returns (int result) {\n        Proposal p = proposals[proposalNumber];\n        /* Check if the proposal can be executed */\n        if (now < p.votingDeadline  /* has the voting deadline arrived? */\n            ||  p.executed        /* has it been already executed? */\n            ||  p.proposalHash != sha3(p.recipient, transactionBytecode)) /* Does the transaction code match the proposal? */\n            throw;\n\n        /* tally the votes */\n        uint quorum = 0;\n        uint yea = 0;\n        uint nay = 0;\n\n        for (uint i = 0; i <  p.votes.length; ++i) {\n            Vote v = p.votes[i];\n            uint voteWeight = delegation.voteWeight(v.voter);\n            quorum += voteWeight;\n            if (v.inSupport) {\n                yea += voteWeight;\n            } else {\n                nay += voteWeight;\n            }\n        }\n\n        /* execute result */\n        if (quorum <= minimumQuorum) {\n            /* Not enough significant voters */\n            throw;\n        } else if (yea > nay ) {\n            /* has quorum and was approved */\n            p.executed = true;\n            if (!p.recipient.call(transactionBytecode)) {\n                throw;\n            }\n            p.proposalPassed = true;\n        } else {\n            p.proposalPassed = false;\n        }\n        // Fire Events\n        ProposalExecuted(proposalNumber, result, quorum, p.proposalPassed);\n    }\n\n    /* This unnamed function is called whenever someone tries to send ether to it */\n    function () {\n        throw;     // Prevents accidental sending of ether\n    }\n}",
  "sourcePath": "/Users/frostiq/source/univereum/contracts/LiquidAssociation.sol",
  "compiler": {
    "name": "solc",
    "version": "0.4.18+commit.9cf6e910.Emscripten.clang"
  },
  "schemaVersion": "2.0.0",
  "updatedAt": "2018-04-22T15:34:54.688Z"
}