{
  "contractName": "Unitoken",
  "abi": [
    {
      "constant": true,
      "inputs": [],
      "name": "name",
      "outputs": [
        {
          "name": "",
          "type": "string"
        }
      ],
      "payable": false,
      "stateMutability": "view",
      "type": "function"
    },
    {
      "constant": true,
      "inputs": [],
      "name": "totalSupply",
      "outputs": [
        {
          "name": "",
          "type": "uint256"
        }
      ],
      "payable": false,
      "stateMutability": "view",
      "type": "function"
    },
    {
      "constant": true,
      "inputs": [],
      "name": "decimals",
      "outputs": [
        {
          "name": "",
          "type": "uint8"
        }
      ],
      "payable": false,
      "stateMutability": "view",
      "type": "function"
    },
    {
      "constant": true,
      "inputs": [],
      "name": "standard",
      "outputs": [
        {
          "name": "",
          "type": "string"
        }
      ],
      "payable": false,
      "stateMutability": "view",
      "type": "function"
    },
    {
      "constant": true,
      "inputs": [
        {
          "name": "",
          "type": "address"
        }
      ],
      "name": "balanceOf",
      "outputs": [
        {
          "name": "",
          "type": "uint256"
        }
      ],
      "payable": false,
      "stateMutability": "view",
      "type": "function"
    },
    {
      "constant": true,
      "inputs": [],
      "name": "owner",
      "outputs": [
        {
          "name": "",
          "type": "address"
        }
      ],
      "payable": false,
      "stateMutability": "view",
      "type": "function"
    },
    {
      "constant": true,
      "inputs": [],
      "name": "symbol",
      "outputs": [
        {
          "name": "",
          "type": "string"
        }
      ],
      "payable": false,
      "stateMutability": "view",
      "type": "function"
    },
    {
      "constant": true,
      "inputs": [
        {
          "name": "",
          "type": "address"
        }
      ],
      "name": "frozenAccount",
      "outputs": [
        {
          "name": "",
          "type": "bool"
        }
      ],
      "payable": false,
      "stateMutability": "view",
      "type": "function"
    },
    {
      "constant": false,
      "inputs": [
        {
          "name": "newOwner",
          "type": "address"
        }
      ],
      "name": "transferOwnership",
      "outputs": [],
      "payable": false,
      "stateMutability": "nonpayable",
      "type": "function"
    },
    {
      "inputs": [
        {
          "name": "initialSupply",
          "type": "uint256"
        },
        {
          "name": "tokenName",
          "type": "string"
        },
        {
          "name": "decimalUnits",
          "type": "uint8"
        },
        {
          "name": "tokenSymbol",
          "type": "string"
        },
        {
          "name": "centralMinter",
          "type": "address"
        }
      ],
      "payable": false,
      "stateMutability": "nonpayable",
      "type": "constructor"
    },
    {
      "payable": false,
      "stateMutability": "nonpayable",
      "type": "fallback"
    },
    {
      "anonymous": false,
      "inputs": [
        {
          "indexed": true,
          "name": "from",
          "type": "address"
        },
        {
          "indexed": true,
          "name": "to",
          "type": "address"
        },
        {
          "indexed": false,
          "name": "value",
          "type": "uint256"
        }
      ],
      "name": "Transfer",
      "type": "event"
    },
    {
      "anonymous": false,
      "inputs": [
        {
          "indexed": false,
          "name": "target",
          "type": "address"
        },
        {
          "indexed": false,
          "name": "frozen",
          "type": "bool"
        }
      ],
      "name": "FrozenFunds",
      "type": "event"
    },
    {
      "constant": false,
      "inputs": [
        {
          "name": "_to",
          "type": "address"
        },
        {
          "name": "_value",
          "type": "uint256"
        }
      ],
      "name": "transfer",
      "outputs": [],
      "payable": false,
      "stateMutability": "nonpayable",
      "type": "function"
    },
    {
      "constant": false,
      "inputs": [
        {
          "name": "target",
          "type": "address"
        },
        {
          "name": "mintedAmount",
          "type": "uint256"
        }
      ],
      "name": "mintToken",
      "outputs": [],
      "payable": false,
      "stateMutability": "nonpayable",
      "type": "function"
    },
    {
      "constant": false,
      "inputs": [
        {
          "name": "target",
          "type": "address"
        },
        {
          "name": "freeze",
          "type": "bool"
        }
      ],
      "name": "freezeAccount",
      "outputs": [],
      "payable": false,
      "stateMutability": "nonpayable",
      "type": "function"
    }
  ],
  "bytecode": "0x606060405260408051908101604052600981527f546f6b656e20302e3100000000000000000000000000000000000000000000006020820152600290805161004b92916020019061013b565b50341561005757600080fd5b60405161091338038061091383398101604052808051919060200180518201919060200180519190602001805182019190602001805160018054600160a060020a03191633600160a060020a031617905560068790559150600390508480516100c492916020019061013b565b5060048280516100d892916020019061013b565b506005805460ff191660ff8516179055600160a060020a038116156101135760018054600160a060020a031916600160a060020a0383161790555b5050600154600160a060020a0316600090815260208190526040902092909255506101d69050565b828054600181600116156101000203166002900490600052602060002090601f016020900481019282601f1061017c57805160ff19168380011785556101a9565b828001600101855582156101a9579182015b828111156101a957825182559160200191906001019061018e565b506101b59291506101b9565b5090565b6101d391905b808211156101b557600081556001016101bf565b90565b61072e806101e56000396000f3006060604052600436106100b95763ffffffff7c010000000000000000000000000000000000000000000000000000000060003504166306fdde0381146100c957806318160ddd14610153578063313ce567146101785780635a3b7e42146101a157806370a08231146101b457806379c65068146101d35780638da5cb5b146101f757806395d89b4114610226578063a9059cbb14610239578063b414d4b61461025b578063e724529c1461028e578063f2fde38b146102b2575b34156100c457600080fd5b600080fd5b34156100d457600080fd5b6100dc6102d1565b60405160208082528190810183818151815260200191508051906020019080838360005b83811015610118578082015183820152602001610100565b50505050905090810190601f1680156101455780820380516001836020036101000a031916815260200191505b509250505060405180910390f35b341561015e57600080fd5b61016661036f565b60405190815260200160405180910390f35b341561018357600080fd5b61018b610375565b60405160ff909116815260200160405180910390f35b34156101ac57600080fd5b6100dc61037e565b34156101bf57600080fd5b610166600160a060020a03600435166103e9565b34156101de57600080fd5b6101f5600160a060020a03600435166024356103fb565b005b341561020257600080fd5b61020a6104c1565b604051600160a060020a03909116815260200160405180910390f35b341561023157600080fd5b6100dc6104d0565b341561024457600080fd5b6101f5600160a060020a036004351660243561053b565b341561026657600080fd5b61027a600160a060020a0360043516610617565b604051901515815260200160405180910390f35b341561029957600080fd5b6101f5600160a060020a0360043516602435151561062c565b34156102bd57600080fd5b6101f5600160a060020a03600435166106b8565b60038054600181600116156101000203166002900480601f0160208091040260200160405190810160405280929190818152602001828054600181600116156101000203166002900480156103675780601f1061033c57610100808354040283529160200191610367565b820191906000526020600020905b81548152906001019060200180831161034a57829003601f168201915b505050505081565b60065481565b60055460ff1681565b60028054600181600116156101000203166002900480601f0160208091040260200160405190810160405280929190818152602001828054600181600116156101000203166002900480156103675780601f1061033c57610100808354040283529160200191610367565b60006020819052908152604090205481565b60015433600160a060020a0390811691161461041657600080fd5b600160a060020a03808316600090815260208190526040808220805485019055600680548501905530909216917fddf252ad1be2c89b69c2b068fc378daa952ba7f163c4a11628f55a4df523b3ef9084905190815260200160405180910390a381600160a060020a031630600160a060020a03167fddf252ad1be2c89b69c2b068fc378daa952ba7f163c4a11628f55a4df523b3ef8360405190815260200160405180910390a35050565b600154600160a060020a031681565b60048054600181600116156101000203166002900480601f0160208091040260200160405190810160405280929190818152602001828054600181600116156101000203166002900480156103675780601f1061033c57610100808354040283529160200191610367565b600160a060020a03331660009081526007602052604090205460ff161561056157600080fd5b600160a060020a0333166000908152602081905260409020548190101561058757600080fd5b600160a060020a03821660009081526020819052604090205481810110156105ae57600080fd5b600160a060020a033381166000818152602081905260408082208054869003905592851680825290839020805485019055917fddf252ad1be2c89b69c2b068fc378daa952ba7f163c4a11628f55a4df523b3ef9084905190815260200160405180910390a35050565b60076020526000908152604090205460ff1681565b60015433600160a060020a0390811691161461064757600080fd5b600160a060020a03821660009081526007602052604090819020805460ff19168315151790557f48335238b4855f35377ed80f164e8c6f3c366e54ac00b96a6402d4a9814a03a5908390839051600160a060020a039092168252151560208201526040908101905180910390a15050565b60015433600160a060020a039081169116146106d357600080fd5b6001805473ffffffffffffffffffffffffffffffffffffffff1916600160a060020a03929092169190911790555600a165627a7a723058209798dfb0dbdac8900d3071f7a9140186a0bf4499b25ec6c5f24b7783b4115a9e0029",
  "source": "pragma solidity ^0.4.2;\n\nimport \"./Owned.sol\";\n\ncontract IToken {\n    mapping (address => uint) public balanceOf;\n}\n\ncontract Unitoken is IToken, Owned {\n    /* Public variables of the token */\n    string public standard = 'Token 0.1';\n    string public name;\n    string public symbol;\n    uint8 public decimals;\n    uint256 public totalSupply;\n\n    mapping (address => bool) public frozenAccount;\n\n    /* Initializes contract with initial supply tokens to the creator of the contract */\n    function Unitoken(\n        uint256 initialSupply,\n        string tokenName,\n        uint8 decimalUnits,\n        string tokenSymbol,\n        address centralMinter\n    ) {\n        totalSupply = initialSupply;                        // Update total supply\n        name = tokenName;                                   // Set the name for display purposes\n        symbol = tokenSymbol;                               // Set the symbol for display purposes\n        decimals = decimalUnits; \n        if (centralMinter != 0 ) owner = centralMinter;      // Sets the owner as specified (if centralMinter is not specified the owner is msg.sender)\n        balanceOf[owner] = initialSupply;                   // Give the owner all initial tokens\n    }\n\n    /* This generates a public event on the blockchain that will notify clients */\n    event Transfer(address indexed from, address indexed to, uint256 value);\n    \n    /* This generates a public event on the blockchain that will notify clients */\n    event FrozenFunds(address target, bool frozen);\n\n    function transfer(address _to, uint256 _value) {\n        if (frozenAccount[msg.sender]) throw;                // Check if frozen\n        if (balanceOf[msg.sender] < _value) throw;           // Check if the sender has enough\n        if (balanceOf[_to] + _value < balanceOf[_to]) throw; // Check for overflows\n        \n        balanceOf[msg.sender] -= _value;                     // Subtract from the sender\n        balanceOf[_to] += _value;                            // Add the same to the recipient\n        Transfer(msg.sender, _to, _value);                   // Notify anyone listening that this transfer took place\n    }\n\n    function mintToken(address target, uint256 mintedAmount) onlyOwner {\n        balanceOf[target] += mintedAmount;\n        totalSupply += mintedAmount;\n        Transfer(0, this, mintedAmount);\n        Transfer(this, target, mintedAmount);\n    }\n\n    function freezeAccount(address target, bool freeze) onlyOwner {\n        frozenAccount[target] = freeze;\n        FrozenFunds(target, freeze);\n    }\n\n    /* This unnamed function is called whenever someone tries to send ether to it */\n    function () {\n        throw;     // Prevents accidental sending of ether\n    }\n}",
  "sourcePath": "/Users/frostiq/source/univereum/x/contracts/Unitoken.sol",
  "compiler": {
    "name": "solc",
    "version": "0.4.18+commit.9cf6e910.Emscripten.clang"
  },
  "schemaVersion": "2.0.0",
  "updatedAt": "2018-04-22T14:25:03.156Z"
}